:1000EC00080800003E4141413E0008107FBFDFEF91
:0400FC00F7FBFDFE13
:0B010100EF1FAC0670011E4C70F622D0
:10008F00C2B6C2B5E4FEEEC39408748094805018D3
:10009F00EFC4131313540124FF92B4EF25E0FFD2E2
:0E00AF00B60000C2B60E80DED2B50000C2B5AB
:0100BD002220
:1000BE0075807FE4FDEDC394087480948050F174D4
:1000CE00102DF8E6F58074082DF8E6FF12008F7FEC
:0E00DE00647E00120101E4FF12008F0D80D736
:03000000020003F8
:0C000300787FE4F6D8FD75811702004AF2
:10000F000200BEE493A3F8E493A34003F68001F249
:10001F0008DFF48029E493A3F85407240CC8C333F2
:10002F00C4540F4420C8834004F456800146F6DFC1
:10003F00E4800B01020408102040809000ECE47E65
:10004F00019360BCA3FF543F30E509541FFEE493B6
:10005F00A360010ECF54C025E060A840B8E493A37D
:10006F00FAE493A3F8E493A3C8C582C8CAC583CAA8
:10007F00F0A3C8C582C8CAC583CADFE9DEE780BE60
:0101000000FE
:00000001FF
