:103DCF00C6D5D6D0BFC6BCBC007777772E707265CC
:083DDF006368696E2E636E003B
:103AE800123DE712220274FF900113F0A3F0900137
:103AF8000CE0C313FEA3E01324C4FFEE34FFFE7BE7
:103B0800FF7A3D79CF7D0A7C00122F2E90010CE0C0
:103B1800FAA3E0FBEAC313FEEB1324ACFFEE34FF79
:103B2800FEA3E0FDA3E090003ACDF0A3EDF0A3746E
:103B380018F0A374FFF0A3743DF0A374D8F07D28A7
:073B48007C0012338E80FEA9
:0B3E4300EF1FAC0670011E4C70F62251
:10000300D3EF9400EE940040147D6E7C00ED1D70E0
:0D001300011CED4C70F7EF1F70E61E80E33E
:0100200022BD
:053E2500420032000024
:103DE700759850758920758780758DFA858D8BD26A
:063DF700AFD28ED299222A
:063E5900EF24FF92AC22F1
:0E3E3500C2ACC2998F993099FDC299D2AC22CD
:103D0600900152EBF0A3EAF0A3E9F0900152E0FB38
:103D1600A3E0FAA3E0F9121F7EFF6016123E357F7C
:103D2600057E00123E43900153E475F001121FD642
:033D360080D9220F
:030023000238FAA6
:1038FA00C0E0C083C082C0D075D000C004C005C07B
:01390A0007B5
:10390B00309864C298AF99900032E0FCEC20E757F6
:10391B0030E60FEF640A90003260028046E044808C
:10392B00800AEFB40D0C900032E04440F0A3E0F0BD
:10393B008035900032E0543FFCA3E02400F5827404
:10394B00003CF583EFF0900033E004F0700690003C
:10395B0032E004F0D3900033E09431900032E094E5
:07396B00004004E4F0A3F0AA
:0F397200D007D005D004D0D0D082D083D0E0329F
:10002600204C43442049443A25780D0A000000003C
:10003600000000000000000000000000003F40003B
:1000460000000000000000300040003000400000CA
:100056000009000BC03D000BC03D00090018C0247C
:10006600407FE0224031800000180024C01B000DB4
:10007600803240018003801C4027401C80074000DE
:1000860040100060000000000000000000000000BA
:100096000000001F80204040200000402020401F1C
:1000A6008000000000090006001F8006000900000D
:1000B60000040004003F800400040000000010005B
:1000C60060000000000000000004000400040004BA
:1000D60000040000000000004000000000000000D6
:1000E60000002001C006003800400000001F8020EC
:1000F60040204020401F800000000010403FC0000C
:10010600400000000018C021402240244018400052
:100116000010802040244024401B80000002000D77
:100126000011003FC0014000003C802440244024D0
:1001360040238000001F8024402440344003800078
:10014600003000200027C03800200000001B80245B
:1001560040244024401B8000001C0022C022402274
:10016600401F800000000000000840000000000062
:100176000000000000046000000000000000000411
:10018600000A00110020804040090009000900090A
:10019600000900000000004040208011000A000411
:1001A600001800200023402400180000001F8020B3
:1001B60040274029401F400000004007C039000F7B
:1001C6000001C0004020403FC0244024401B800066
:1001D600001F802040204020403080000020403F0B
:1001E600C0204020401F80000020403FC024402EF9
:1001F6004030C0000020403FC024402E00300000A8
:10020600000F001080204022403380020020403F33
:10021600C0040004003FC02040204020403FC020D2
:1002260040204000000060202020203FC020002009
:100236000020403FC024400B0030C0204020403FFB
:10024600C020400040004000C03FC03C0003C03C0E
:10025600003FC0000020403FC00C4023003FC020AC
:10026600001F802040204020401F80000020403F8B
:10027600C024402400180000001F80214021402097
:10028600E01FA0000020403FC02440260019C00007
:100296004018C02440244022403180000030002015
:1002A600403FC020403000000020003F800040005A
:1002B600403F80200020003E0001C007003800209B
:1002C60000380007C03C0007C03800000020403955
:1002D600C0060039C0204000002000384007C03862
:1002E6004020000000304021C02640384020C00099
:1002F60000000000007FE040204020000000007069
:10030600000C000380004000000000402040207FD9
:10031600E000000000000020004000200000000077
:100326000000100010001000100010001000000067
:1003360000400000000000000000000280054005AB
:100346004003C0004020003FC0044004400380003A
:100356000000000380044004400640000000000343
:1003660080044024403FC000400000038005400553
:100376004003400000000004401FC02440244020E9
:1003860000000002E0055005500650042020403FC2
:10039600C00440040003C000400000044027C00021
:1003A600400000000000100010041027E0000000CC
:1003B6000020403FC00140070004C0044020402008
:1003C600403FC000400040000007C0040007C004D2
:1003D6000003C00000044007C00440040003C0003E
:1003E600400000038004400440038000000410071E
:1003F600F004500440038000000000038004400421
:100406005007F00010044007C0024004000400003A
:1004160000000006400540054004C000000000043E
:10042600001F8004400040000004000780004004D4
:100436004007C000400400070004C0018006000415
:1004460000060001C0070001C006000000044006C7
:10045600C0010006C0044000000410071004E001BB
:1004660080060004000000044005C0064004400069
:10047600000000000004007BE040200000000000B7
:10048600000000FFF000000000000040207BE004B8
:1004960000000000004000800040002000200040D6
:1004A6000000000000000000000000000000000046
:1004B600000000000000001FCC000C00000000003F
:1004C60000000008003000600008003000600000F6
:1004D60000022003FC1E20022003FC1E2002200036
:1004E6000000000E1811043FFF10840C7800000075
:1004F600000F0010840F3800C007781884007800B9
:100506000000780F8410C411240E9800E4008400C3
:1005160008080068007000000000000000000000ED
:100526000000000000000007E01818200440020048
:1005360000000040022004181807E0000000000038
:10054600000240024001800FF0018002400240009C
:10055600000080008000800FF8008000800080008E
:10056600000001000D000E00000000000000000069
:100576000000000080008000800080008000800075
:10058600800000000C000C000000000000000000CD
:100596000000000006001800600180060018002018
:1005A60000000007F0080810041004080807F0000F
:1005B600000000080408041FFC00040004000000FA
:1005C6000000000E0C10141024104411840E0C00B0
:1005D6000000000C1810041104110412880C70009D
:1005E60000000000E00320042408241FFC0024006F
:1005F6000000001F98108411041104108810700068
:1006060000000007F0088811041104188800700023
:100616000000001C00100010FC13001C001000005D
:100626000000000E3811441084108411440E380066
:100636000000000700088C10441044088807F000EA
:1006460000000000000000030C030C000000000086
:10065600000000000000010106000000000000008C
:100666000000000080014002200410080810040069
:100676000002200220022002200220022002200086
:100686000000001004080804100220014000800049
:100696000000000E001200100C106C10800F0000FD
:1006A6000003E00C1813E4142417C4082807D0002C
:1006B600000004003C03C41C40074000E4001C008A
:1006C6000410041FFC1104110411040E88007000AC
:1006D6000003E00C1810041004100410081C10008D
:1006E6000010041FFC100410041004080807F00092
:1006F6000010041FFC1104110417C410040818008C
:100706000010041FFC1104110017C010000800009F
:100716000003E00C181004100410441C780040007C
:100726000010041FFC10840080008010841FFC1041
:10073600040000100410041FFC1004100400000044
:100746000000030001100110011FFE100010000040
:100756000010041FFC110403801464181C1004000C
:100766000010041FFC1004000400040004000C0028
:100776000010041FFC1F0000FC1F001FFC100400DB
:100786000010041FFC0C04030000E010181FFC10EE
:100796000007F00808100410041004080807F00009
:1007A6000010041FFC10841080108010800F0000C1
:1007B6000007F0081810241024101C080A07F2007D
:1007C6000010041FFC1104110011C011300E0C00A2
:1007D6000400000E1C11041084108410441C380000
:1007E600001800100010041FFC1004100018000070
:1007F6000010001FF810040004000410041FF81075
:100806000010001E0011E0001C007013801C001078
:10081600001FC0103C00E01F0000E0103C1FC0009D
:10082600001004180C163401C001C01634180C1040
:100836000410001C00130400FC13041C001000002C
:10084600000804101C1064108413041C0410180003
:10085600000000000000007FFE400240024002004F
:1008660000000030000C0003800060001C00030044
:100876000000004002400240027FFE00000000002F
:100886000000000000200040004000400020000062
:10089600000001000100010001000100010001004B
:1008A60001000040004000200000000000000000A1
:1008B6000000000098012401440144014400FC00AA
:1008C6000410001FFC008801040104008800700069
:1008D6000000000070008801040104010400880083
:1008E600000000007000880104010411081FFC00CC
:1008F60004000000F8014401440144014400C8001A
:10090600000000010401040FFC1104110411001879
:1009160000000000D601290129012901C9010600AC
:100926000010041FFC008401000100010400FC000B
:100936000400000104190419FC000400040000006E
:10094600000000000300010101190119FE0000006A
:100956000010041FFC0024004001B4010C01040037
:10096600000000100410041FFC0004000400000036
:1009760000010401FC0104010001FC010401000066
:10098600FC010401FC008401000100010400FC00DC
:1009960004000000F8010401040104010400F80049
:1009A60000010101FF0085010401040088007000B8
:1009B6000000000070008801040104010501FF0029
:1009C600010104010401FC0084010401000180000E
:1009D60000000000CC012401240124012401980018
:1009E6000000000100010007F801040104000000F6
:1009F60000010001F8000400040004010801FC00E5
:100A060004010001800170000C00100160018001EA
:100A16000001F0010C003001C00030010C01F001B2
:100A26000000000104018C00740170018C010400B7
:100A360000010101810171000E00180160018001B1
:100A46000000000184010C013401440184010C0002
:100A560000000000000000000001003EFC400240D3
:100A6600020000000000000000FFFF000000000080
:100A7600000000400240023EFC01000000000000B1
:100A86000000006000800080004000400020002040
:100A96000000000000000000000000000000000050
:100AA6000000000000000000000000000000000040
:100AB6000000000000000000000000000000000030
:100AC600000000000F80380FFE380F80380000004D
:100AD600000000000000000000000000000000010F
:100AE60000000600000C000038000031000006007F
:100AF600000C00003800003000000000000000007C
:100B06000061800067F807F980006180006180005D
:100B160061800061800067F807F98000618000004D
:100B26000000000000000001C0E003E0F00630080D
:100B36000418081FFFFE040E080787F00381E00073
:100B4600000000000001F000060C00040408060C7A
:100B56007001F9C0000E00003BE000EC1807080821
:100B6600040C180003E00000000001E00007F00399
:100B7600F818041C0804170807E1D003C0E0002396
:100B8600B0003C0800200800001000000000000033
:100B96000100003100003200001C000000000000CF
:100BA600000000000000000000000000000000003F
:100BB600000000000000000000000000000000002F
:100BC600007F0001FFC00780F00C00181000042011
:100BD60000020000000000002000021000040C00CB
:100BE600180780F001FFC0007F0000000000000031
:100BF60000000000000000000000000000420000AD
:100C06006600006600003C0000180003FFC00018E4
:100C160000003C0000660000660000420000000084
:100C26000008000008000008000008000008000195
:100C3600FFC00008000008000008000008000008C7
:100C46000000000000000100003100003200001C1E
:100C5600000000000000000000000000000000008E
:100C66000000000000000000000800000800000866
:100C76000000080000080000080000080000080046
:100C8600000800000800000000000000000000004E
:100C960000380000380000380000000000000000A6
:100CA600000000000000000000000000000000003E
:100CB60000000600001C000070000180000E00000D
:100CC600380000C0000700001C00003000000000D3
:100CD60000000000007F8001FFE00380700600181E
:100CE60004000804000806001803807001FFE000F5
:100CF6007F800000000000000000000100080100E5
:100D06000801000803FFF807FFF8000008000008C4
:100D160000000800000000000000000001C03802CA
:100D2600C058040098040118040218040418061C8C
:100D36001803F81801E0F8000000000000000000A9
:100D460001C0E003C0F0040008040808040808060F
:100D5600180803F41801E7F00001E00000000000A5
:100D660000000000000300000D00001100006100FB
:100D760000810803010807FFF80FFFF800010800CB
:100D860001080000000000000000E007FCD0060893
:100D960008061008061008061008061838060FF090
:100DA6000607C0000000000000000000003F8001B0
:100DB600FFE0038430020818041008041008041029
:100DC60008071810030FF00007C00000000000001D
:100DD60000000003C0000700000600000600F80639
:100DE60007F806180006E0000700000600000000ED
:100DF6000000000001E1E003F7F0063410041808D3
:100E0600041808040C08040C0806161803F3F0016D
:100E1600C1E000000000000000F80003FC300306FB
:100E2600380402080402080402080404100308F047
:100E360001FFC0007F00000000000000000000006D
:100E460000000000000000000070380070380070DC
:100E56003800000000000000000000000000000054
:100E660000000000000000000000000000301A0032
:100E7600301C000000000000000000000000000020
:100E8600000000000000000008000014000022001E
:100E9600004100008080010040020020040010088C
:100EA60000080000000000000021000021000021D1
:100EB6000000210000210000210000210000210087
:100EC60000210000210000000000000000000008D2
:100ED600000804001002002001004000808000414C
:100EE60000002200001400000800000000000000BE
:100EF60003C00004C000040000080038080F3808CA
:100F060008380810000C300007E00003C00000009D
:100F160000000000003F8000FFE0038070020F1019
:100F260006708804C088048308047F8802C0900382
:100F3600012000FE400000080000180001F8003EF5
:100F46000801C20007020007E20000FE00001FC8F9
:100F56000001F800003800000804000807FFF80741
:100F6600FFF8040808040808040808040808061816
:100F76000803F41801E7F00001E00000000000009B
:100F8600003F8001FFE0038070020018040008049F
:100F960000080400080400100600200780C00000B6
:100FA6000004000807FFF807FFF80400080400081B
:100FB60004000804001802001003807001FFE0001E
:100FC6007F8000000004000807FFF807FFF8040808
:100FD60008040808040808040808043E0804000871
:100FE60006001801006000000004000807FFF8076B
:100FF600FFF8040808040800040800040800043E7A
:10100600000600000600000180000000000000004D
:10101600003F8001FFE0038070060018040008040A
:1010260002080402080203F00783F000020000022F
:101036000004000807FFF807FFF804080800080086
:1010460000080000080000080004080807FFF80769
:10105600FFF8040008000000000000040008040077
:101066000804000807FFF807FFF804000804000852
:101076000400080000000000000000000000060058
:10108600000700000104000104000104000307FF3B
:10109600FE07FFFC04000004000004000004000832
:1010A60007FFF807FFF8040C08001800003E0004CC
:1010B600C7800503C80600F80400380400180000BD
:1010C6000804000807FFF807FFF8040008000008F6
:1010D60000000800000800000800000800001800D2
:1010E600006000000004000807FFF807800807FCFE
:1010F60000007FC00003F80007C0007800078008E2
:1011060007FFF807FFF804000804000807FFF807C0
:10111600000803C00000E000003800001E000007C1
:10112600000001C00400F007FFF804000000000002
:10113600007F8001FFE003807006001804000804A9
:10114600000806001803003001FFE0007F80000061
:101156000004000807FFF807FFF804040804040069
:10116600040400040400040400060C0003F8000153
:10117600F000000000000000007F8001FFE0038017
:10118600700600880400880400C806003C03003E80
:1011960001FFE6007F8400000004000807FFF8074F
:1011A600FFF8040808040800040C00040F00040BF0
:1011B600C00610F003F03801E00800000800000047
:1011C60001E0F803F030063010041808041808048B
:1011D6000C08040C080206180207F00781E000005C
:1011E600000180000600000400000400000400085E
:1011F60007FFF807FFF804000804000004000006D3
:10120600000001800004000007FFE007FFF0040073
:101216001800000800000800000800000800000888
:1012260004001007FFE004000004000006000007A9
:10123600E00007FE00041FE00001F800003800018E
:10124600E0043E0007C000060000040000040000A1
:1012560007E00007FFC0041FF80007C007F80007F3
:10126600FF80043FF80007C004F8000700000400F0
:101276000000000004000806001807C07805F1C841
:10128600003E00001F800463E80780F8060018048B
:10129600000800000004000006000007800007E0C8
:1012A60008047C08001FF80007F800180804E00886
:1012B6000700000600000400000000000100080608
:1012C60000380400F80403E8040F08047C0805F05D
:1012D6000807C008070018040060000000000000AE
:1012E6000000000000000000000000003FFFFE209C
:1012F600000220000220000220000220000200005E
:101306000000000000000008000007000000C00008
:101316000038000006000001C000003000000E008A
:101326000001000000000000000000200002200074
:10133600022000022000022000023FFFFE00000003
:101346000000000000000000000000000000000097
:1013560000000800001000003000002000003000EF
:10136600001000000800000000000000000000015E
:101376000000010000010000010000010000010062
:101386000001000001000001000001000001000052
:101396000100000000000000000020000020000006
:1013A6001000001000000000000000000000000017
:1013B60000000000000000000000F00019F8001B0B
:1013C60018002208002608002408002410003FF810
:1013D600001FF800000800001800000004000007C5
:1013E600FFF80FFFF0001818001008002008002072
:1013F60008003018001FF0000FC0000000000000B9
:101406000007C0001FF00018300020080020080068
:101416002008003C08001C100000600000000000CE
:10142600000000000007C0001FF000381800200868
:1014360000200800200804101007FFF80FFFF00036
:1014460000100000000000000000000007C0001FA0
:10145600F00012300022180022080022080032088C
:10146600001E10000E2000000000000000200000FA
:10147600200800200801FFF803FFF80620080420D2
:1014860008042008072000030000000000000000F8
:1014960000000E000E6E001FF30031B10020B100F7
:1014A60020B1003191001F13002E1E00200E0030C7
:1014B6000000000004000807FFF80FFFF8001008FE
:1014C600002000002000002008003FF8001FF80060
:1014D60000080000000000000000000020080020B6
:1014E60008002008063FF8063FF80000080000083C
:1014F60000000800000000000000000000000000DE
:101506000003000003002001002001002003063F25
:10151600FE063FFC00000000000000000000000086
:1015260004000807FFF80FFFF80001880003000019
:101536002FC00038F80020380020080000080000FE
:101546000000000000000004000804000804000871
:1015560007FFF80FFFF80000080000080000080069
:101566000000000000002008003FF8003FF80010CF
:1015760008002000003FF8003FF800100800200097
:10158600003FF8003FF800000800000000200800B7
:101596003FF8003FF800100800100000200000206F
:1015A60008003FF8001FF8000008000000000000D7
:1015B6000007C0000FF000183000300800200800B7
:1015C6002008003008001830000FF00007C00000A7
:1015D60000000000002001003FFF003FFF00101147
:1015E600002009002008002008003038001FF00005
:1015F6000FC00000000000000007C0001FF0003808
:1016060018002008002008002009001011001FFF04
:10161600003FFF0000010000000020080020080035
:101626002008003FF8003FF80008080010080020D6
:10163600080020000030000030000000000000001C
:10164600000000000C78001E180033080023080074
:1016560021080021880021980030F0003860000041
:101666000000000000200000200000200000FFF025
:1016760003FFF800200800200800200800003000C2
:101686000000000000000000002000003FF0007F86
:10169600F8000018000008000008002010003FF8BD
:1016A600007FF00000100000000000000020000095
:1016B6003000003C00003F800023F000007800006E
:1016C60070002380003C0000300000200000200055
:1016D600003C00003FE00023F80000E00027000087
:1016E6003E00003FE00021F80001E0003E0000203F
:1016F60000000000002008002008003838003E687E
:101706000027800003C8002CF80038380020180095
:101716002008000000000000002000003003003C0C
:1017260001003F830023EC000070002380003C0092
:101736000020000020000000000000000000000063
:1017460038080020380020F80023E8002F88003EE3
:101756000800380800201800007000000000000093
:10176600000000000000000000000000000800006B
:1017760014001FF7FC3000062000020000000000E5
:101786000000000000000000000000000000000053
:10179600000000FFFFFF0000000000000000000046
:1017A60000000000000000000000002000023000E1
:1017B600061FF7FC001400000800000000000000EF
:1017C600000000000000000000000000180000609B
:1017D600000040000040000020000010000008004B
:1017E600000400000400000C0000100000C6D50034
:1017F60000000000E0380000783C00003C78000063
:101806003C70C0001CE1E01FFFFFF0001CE3000E6F
:101816001CE7C0079CE78003DCEF0003DCEE000159
:10182600DCFC60009CF9F07FFFFFF800000000017F
:10183600C00E0001FFFF0001C00E0001C00E000136
:10184600C00E0001FFFE0001C00E0001C00E000127
:10185600C00E0001FFFE0001C00E0001C00E000018
:10186600000000D6D000000000000700000007803E
:101876000000070000000700000007000000070145
:10188600801FFFFFE01FFFFFE01E0701C01E0701CC
:10189600C01E0701C01E0701C01E0701C01E0701AA
:1018A600C01FFFFFC01FFFFFC01E0701C01C0701AE
:1018B6008000070000000700000007000000070086
:1018C60000000700000007000000070000000700F6
:1018D600000007000000000000BFC6000000000076
:1018E600000780003C07C001FC07803FE007803905
:1018F600C1C78001C0E78001C0F78001C0778001C1
:10190600DE77807FFE078001C0078003C3C78003A0
:10191600E1E78003F8F78007FCE7F00FDE67F80FD2
:10192600DC07F81FC0FF801DDFE78039CC07807118
:10193600C0078061C0078001C0078001C007800121
:10194600E0078001E0078001C0070000000000BC3E
:10195600BC000000000380300003C03C0003C03C14
:101966000003C0380003C0380003C0386003F838ED
:10197600F07FFFFFF003C0380003C0380003C03813
:101986000003DC39C003FFFFE007E383C03FC183E8
:10199600C07FC1C3803BC1C78003C0EF0003C0EF57
:1019A6000003C07E0003C07C0003C07C0003C0FEB1
:1019B600003BC3EF803F8787F80FBF03F807780027
:1019C600E000000000C4EA0000000000C0000001C2
:1019D600F0000001E0000003C000C003C001E00702
:1019E600FFFFF00703C0000E03C0001E03C0003C4B
:1019F60003C3007303C78063FFFFC00383C00003F4
:101A060083C0000383C0000383C0000383C0600358
:101A160083C0F07FFFFFF80003C0000003C0000092
:101A260003C0000003C0000003C0000003C00000A4
:101A360003C0000003C00000000000D4C200000084
:101A4600000000000000E0070000FFFF8000F00734
:101A56008000F0070000F0070000F0070000F00724
:101A66000000FFFF0000FFFF0000F0070000F00786
:101A76000000F0070000F0070000E0070000FFFF8D
:101A86000000E0070000E0070000E0070001E007B3
:101A96000001C0070001C00700038007000780F7A8
:101AA600000F007F001E001F0038001C0000000011
:101AB60000C8D5000000000000000003000300037A
:101AC600FFFF8003FFFF80038007000380070003FA
:101AD60080070003800700038007000380070003D8
:101AE6008007000380070003FFFF00038007000351
:101AF60080070003800700038007000380070003B8
:101B060080070003800700038007000380070003A7
:101B1600FFFF000380070003800700038007000320
:101B260000000000000000D0C70000000000000018
:101B3600000380070003FFFF800380070003800780
:101B4600000380070003FFFF0003800700038007F0
:101B56000003FFFF0003FFFF00038707000387C0A2
:101B66000003C7810003C7838007FFFFC007078004
:101B7600000F0780001E0786001C078F003BFFFF33
:101B8600807007800000078000000780E000078162
:101B9600F07FFFFFF80000000000000000C6DA003A
:101BA60000000006000000079E0000079E7FF00769
:101BB6009E7FF0079FF8F03FFFF8F01F9E78F00732
:101BC6009E78F0079E78F007FE7FF0079E78F00774
:101BD6009E78F0079E70F007FE70F0079E70F00783
:101BE6009E7FF0079FFFF03FFFF0F0119070F0032B
:101BF600DCF0F003DEE0F0078FE0F00F0FE0F00E10
:101C060007C0F01C038FF0380F03E0201C01C00052
:031C1600000000CB
:0A3E2A00420113FFFF4201150000E2
:043D9B007F227E0005
:103D9F00AD07AC06C2A7C2A6ECF590AF058F80C2E7
:063DAF00A5D2A5D2A72257
:103DFD00AD07AC06C2A7D2A6ECF590AF058F80C279
:063E0D00A5D2A5D2A722F8
:083D6000900145E0FEA3E0FF25
:103D6800AD07AC06C2A7D2A6ECF590AF058F80C20E
:063D7800A5D2A5D2A7228E
:043E1300E4FDFCFED0
:0E3E1700AB05AA04123D9FAE02AF03023DFDB3
:103DB5007590FF7580FFC2A7D2A6C2B200AF90EF83
:093DC500FEAD80EDFFD2B2D2A7E1
:013DCE0022D2
:103B4F00EF7030FD7C017F01FE123E177F037E0078
:103B5F00123D9F7F307E50123DFD90010E7401F09B
:103B6F00A37440F090010CE4F0A374F0F0E4900122
:103B7F0012F0227F01123E137F037E00123D9F7FC2
:103B8F00387E50123DFD90010EE4F0A374F0F090DA
:103B9F00010C7401F0A37440F09001127401F02233
:10220200D2B37F647E00120003C2B37F647E0012E9
:102212000003D2B37F647E00120003E4FFFE123D8E
:102222009F123DB5900110EEF0A3EFF07BFF7A0014
:102232007926900037EEF0A3EFF0121C847D007C2B
:10224200017F017E00123E177D007C077F027E0027
:10225200123E177D307C507F037E00123E177F04B2
:10226200123E137D027C037F087E00123E17E4FDBE
:10227200FC7F09FE123E17E4FDFC7F0AFE123E17A8
:10228200E4FDFC7F0CFE123E17E4FDFC7F0DFE1206
:102292003E17E4FDFC7F0FFE123E177F647E0012A4
:1022A20000037DE07C107F107E00123E177F647E6B
:1022B20000120003E4FDFC7F30FE123E177D067C17
:1022C200047F317E00123E177D027C037F327E0046
:1022D200123E177D067C007F357E00123E177D0080
:1022E2007C077F367E00123E17E4FDFC7F37FE122C
:1022F2003E177D067C047F387E00123E177D027CED
:10230200037F397E00123E177D067C007F3C7E00F3
:10231200123E177D007C077F3D7E00123E17E4FDD2
:10232200FC7F20FE123E17E4FDFC7F21FE123E17C9
:10233200E4FDFC7F50FE123E177DEF7C007F517E54
:1023420000123E17E4FDFC7F52FE123E177D3F7CD9
:10235200017F537E00123E177D007CA77F607E00C6
:10236200123E177D017C007F617E00123E17E4FD64
:10237200FC7F6AFE123E177D307C007F907E001249
:102382003E177D1E7C027F957E00123E17E4FDFC07
:102392007F80FE123E17E4FDFC7F81FE123E17E4B1
:1023A200FDFC7F82FE123E17E4FDFC7F83FE123E9F
:1023B20017E4FDFC7F84FE123E17E4FDFC7F85FEE0
:1023C200123E177D017C007FFF7E00123E177D0EBC
:1023D2007C317FB07E00123E17E4FDFC7FFFFE12CF
:1023E2003E177F647E001200037D337C017F077EEF
:1023F20000123E177F327E00120003123D9BE4FF63
:0E240200123B4F900115E0FEA3E0FF0239816E
:0536F700E0FEA3E0FF6E
:1036FC00900053EEF0A3EFF0A3ECF0A3EDF0A3EAEF
:10370C00F0A3EBF0900112E09000537052E0FCA398
:10371C00E0FD7F507E00123E17900057E0FCA3E0C6
:10372C00FD7F517E00123E17900055E0FCA3E0FD9A
:10373C007F527E00123E17900059E0FCA3E0FD7F03
:10374C00537E00123E17900053E0FCA3E0FD7F2057
:10375C007E00123E17A3E0FCA3E0FD7F218050E029
:10376C00FCA3E0FD7F527E00123E17900057E0FC58
:10377C00A3E0FD7F537E00123E17900055E0FCA3A2
:10378C00E0FD7F507E00123E17900059E0FCA3E054
:10379C00FD7F517E00123E17900053E0FCA3E0FD2C
:1037AC007F217E00123E17A3E0FCA3E0FD7F207E6C
:0837BC0000123E17123D9B2292
:0C3A020090012BECF0A3EDF0AB07AA063E
:103A0E00E4A3F0A3F0A3F0A3F0A3F0A3F0D39001EE
:103A1E000DE09B90010CE09A401590010EE0FEA384
:103A2E00E0FF90012BE0FCA3E0FD9FEC9E4004E440
:103A3E00FEFF22AF03AE02C00790012BE0FFA3E012
:103A4E00900059CFF0A3EFF0D0071236FC123D9B39
:103A5E00123DB590012DEEF0A3EFF0123DB59001A1
:063A6E002DEEF0A3EFF0C5
:013A7400222F
:08398100900034EEF0A3EFF01A
:10398900E4A3F0A3F090010DE024FFFB90010CE00B
:1039990034FFFA90010FE024FFFE90010EE034FF9E
:1039A900900059F0A3CEF0E4FDFCFFFE1236FCE4D2
:1039B900FAFBD390010DE09B90010CE09A4039E4A9
:1039C900900036F0A3F090010EE0FEA3E0FFC39053
:1039D9000037E09F900036E09E5016900034123D6B
:1039E90063900037E004F070DD900036E004F08069
:0839F900D50BBB00010A80BAE6
:013A010022A2
:10362700900102ECF0A3EDF0900100EEF0A3EFF0B3
:08363700900104EAF0A3EBF09E
:10363F00E490010AF0A3F0D3EF9BEE9A4003023619
:10364F00F6900106E0FEA3E0FF900102E0FCA3E08C
:10365F00FD9FEC9E40030236F6900104E0FAA3E0D2
:10366F00FBA3E0FFA3E0900059CFF0A3EFF0900190
:10367F00001236F7900100E0FEA3E0FFC3900105B2
:10368F00E09FFF900104E09ECF2401CF3400900112
:10369F0000F0A3EFF0A3E0FEA3E0FFC3900107E06B
:1036AF009FFF900106E09ECF2401CF3400900102CE
:1036BF00F0A3EFF090010074FFF5F0121FEC45F04E
:1036CF006025900102E0FFA3E090010ACFF0A3EF85
:1036DF00F090010A74FFF5F0121FEC45F060D590E1
:0736EF000108123D6380EAAF
:0136F60022B1
:0E3296009000C5EEF0A3EFF0A3ECF0A3EDF076
:1032A4009000C5E0FEA3E0FFC3EB9FFFEA9ECF249E
:1032B40001CF34009000D2F0A3EFF09000C7E0FEFD
:1032C400A3E0FFC39000CCE09FFF9000CBE09ECF33
:1032D4002401CF34009000D0F0A3EFF09000C7E0B9
:1032E400FCA3E0FD9000CBE0FFA3E0900059CFF0F9
:1032F400A3EFF09000C51236F7E49000D4F0A3F0E9
:103304009000D0E0FEA3E0FFC39000D5E09F9000C2
:10331400D4E09E5074E49000D6F0A3F09000D2E084
:10332400FEA3E0FF9000D6E0FAA3E0FBC39FEA9E71
:1033340050469000D2E0FCA3E0FDA3E0FEA3E0FF32
:10334400121FC4EB2FFFEA3EFEEF25E0FFEE33FE33
:103354009000CDE0FBA3E0FAA3E0F98F828E831204
:103364002002FFAEF0123D689000D7E004F070AC8C
:103374009000D6E004F080A49000D5E004F07080C2
:093384009000D4E004F0023304CF
:01338D00221D
:103C8B0090011DFEE0FCA3E0FDC390011AE09DFD39
:063C9B00900119E09CFC01
:103CA100AB07AA068D828C83C006C007AE83AF82A4
:103CB100900059EEF0A3EFF0D007D0061236FC9039
:0A3CC1000113E0FEA3E0FF023D68DE
:063BFF00FDE0FAA3E0FB6B
:103C050090004DEEF0A3EFF0900051EAF0A3EBF039
:103C150090004FECF0A3EDF090004DE0FAA3E0FB2F
:103C2500FFAE02C007A3E0FFA3E0900059CFF0A3C9
:103C3500EFF0D0071236FC900051E0FEA3E0FF0242
:023C45003D68D8
:103A750090013BEEF0A3EFF0A3ECF0A3EDF0A3EA89
:103A8500F0A3EBF0123C0590013CE02401FF90010E
:103A95003BE03400FE90013DE0FCA3E0A3123BFFB8
:103AA50090013BE0FEA3E0FF90013EE02401FD9084
:103AB500013DE03400FC90013F123C0090013CE0E8
:103AC5002401FF90013BE03400FE90013EE024011B
:103AD500FD90013DE03400FC90013FE0FAA3E0FBDE
:033AE500023C059B
:0E24100090007AEEF0A3EFF0A3ECF0A3EDF055
:10241E00E4900082F0A3F0A3F0A3F0A3F0A3F09059
:10242E00007AE0FEA3E0FFC3EB9FFFEA9E900088D8
:10243E00F0A3EFF090007CE0FAA3E0FBC3900081E4
:10244E00E09BFE900080E09A90008AF0A3CEF09080
:10245E00007AE0FFA3E0900092CFF0A3EFF0A3EAA2
:10246E00F0A3EBF0900088E0FEA3E0FFD39400EE23
:10247E0064809480400A90008EE4F0A304F08021E2
:10248E00EF4E700890008EF0A3F0801574FF900050
:10249E008EF0A3F0C3E49FFFE49E900088F0A3EFBC
:1024AE00F090008AE0FEA3E0FFD39400EE648094E7
:1024BE0080400A900090E4F0A304F08021EF4E706B
:1024CE0008900090F0A3F0801574FF900090F0A398
:1024DE00F0C3E49FFFE49E90008AF0A3EFF090001B
:1024EE008AE0FEA3E0FF900088E0FCA3E0FDD39F0E
:1024FE00EE6480F8EC64809890008C4007ECF0A3BA
:10250E00EDF08005EEF0A3EFF0E4900082F0A3F082
:10251E0090008DE02401FF90008CE03400FED390FB
:10252E000083E09F900082E09E40030225FE900013
:10253E0092E0FEA3E0FFA3E0FCA3E0FD123CA1901D
:10254E000088E0FEA3E0FF900085E02FF09000846D
:10255E00E03EF090008AE0FEA3E0FF900087E02FBF
:10256E00F0900086E03EF090008CE0FEA3E0FF903D
:10257E000084E0FCA3E0FDD39FEE6480F8EC648061
:10258E00984020ED9FFFEC9E900084F0A3EFF0901A
:10259E00008EE0FEA3E0FF900093E02FF0900092FB
:1025AE00E03EF090008CE0FEA3E0FF900086E0FCA1
:1025BE00A3E0FDD39FEE6480F8EC6480984020ED9C
:1025CE009FFFEC9E900086F0A3EFF0900090E0FE4F
:1025DE00A3E0FF900095E02FF0900094E03EF09085
:1025EE000083E004F07006900082E004F002251EE5
:0125FE0022BA
:0E25FF0090005CEEF0A3EFF0A3ECF0A3EDF083
:10260D00E4900068F0A3F0A3F0A3F090005CE0FE6E
:10261D00A3E0FFC3EB9FFFEA9E90006CF0A3EFF0E9
:10262D0090005EE0FAA3E0FBC3900063E09BFE9098
:10263D000062E09A90006EF0A3CEF090005CE0FF97
:10264D00A3E0900076CFF0A3EFF0A3EAF0A3EBF0B8
:10265D0090006CE0FEA3E0FFD39400EE64809480C4
:10266D00400A900072E4F0A304F08021EF4E700850
:10267D00900072F0A3F0801574FF900072F0A3F03B
:10268D00C3E49FFFE49E90006CF0A3EFF090006E0A
:10269D00E0FEA3E0FFD39400EE64809480400A90A6
:1026AD000074E4F0A304F08021EF4E7008900074E4
:1026BD00F0A3F0801574FF900074F0A3F0C3E49FB5
:1026CD00FFE49E90006EF0A3EFF090006EE0FEA38D
:1026DD00E0FF90006CE0FCA3E0FDD39FEE6480F87A
:1026ED00EC6480989000704007ECF0A3EDF080054D
:1026FD00EEF0A3EFF0E4900066F0A3F0900071E02F
:10270D002401FF900070E03400FED3900067E09F3D
:10271D00900066E09E40030227EB900076E0FEA35A
:10272D00E0FFA3E0FCA3E0900064123BFF90006C7F
:10273D00E0FEA3E0FF900069E02FF0900068E03E1E
:10274D00F090006EE0FEA3E0FF90006BE02FF090A4
:10275D00006AE03EF0900070E0FEA3E0FF9000689C
:10276D00E0FCA3E0FDD39FEE6480F8EC648098401C
:10277D0020ED9FFFEC9E900068F0A3EFF0900072AB
:10278D00E0FEA3E0FF900077E02FF0900076E03EB2
:10279D00F0900070E0FEA3E0FF90006AE0FCA3E083
:1027AD00FDD39FEE6480F8EC6480984020ED9FFF90
:1027BD00EC9E90006AF0A3EFF0900074E0FEA3E0B1
:1027CD00FF900079E02FF0900078E03EF0900067E8
:0E27DD00E004F07006900066E004F0022709A8
:0127EB0022CB
:10354F00900141EEF0A3EFF0900145EAF0A3EBF00C
:08355F00900143ECF0A3EDF034
:10356700900141E0FAA3E0FB24FFFFEA34FFFEC02D
:1035770006C007ED24FFFDEC34FFFCEB2401FBE460
:103587003AFAA3E0FEA3E02401FFE43E900059F0DD
:10359700A3EFF0D007D0061236FCE4FB123D600B18
:1035A700EBB409F8900142E024FCFF900141E034BC
:1035B700FFFEC007900143E0FCA3E0FD900142E05D
:1035C7002404FB900141E03400FA900143E0FFA39B
:1035D700E0900059CFF0A3EFF0D0071236FCE4FBE0
:1035E700123D600BEBB409F8900144E024FCFD9018
:1035F7000143E034FFFC900141E0FAA3E0FBA3E0C4
:10360700FEA3E02404FFE43E900059F0A3EFF090FE
:0F36170001411236F7E4FB123D600BEBB409F8EA
:013626002281
:1037C400900137EAF0A3EBF0900133EEF0A3EFF0B1
:1037D400A3ECF0A3EDF0C007A3E0FAA3E0FB900193
:1037E40035E0FFA3E0900080CFF0A3EFF0D0071204
:1037F4002410900133E0FAA3E0FBFFAE02C007A35C
:10380400E0FCA3E0FD900139E0FFA3E0900080CF4D
:10381400F0A3EFF0D007122410900139E0FCA3E0EC
:10382400FD900137E0FAA3E0FBA3E0FFA3E09000E2
:1038340080CFF0A3EFF0900133E0FEA3E0FF122469
:1038440010900137E0FAA3E0FBFFAE02C00790013D
:1038540035E0FCA3E0FD900139E0FFA3E090008097
:0A386400CFF0A3EFF0D0070224100C
:0E27EC00900117EEF0A3EFF0A3ECF0A3EDF0D8
:1027FA00E4A3F0A3F0EBFF7E00A3EEF0A3EFF02535
:10280A00E0FFEE33FEC374039F900120F0E49E9034
:10281A00011FF090011DE0FEA3E0FF90011BE0FC08
:10282A00A3E0FDD39FEE6480F8EC64809840030235
:10283A0029C3900118E02DFF900117E03C123C8B50
:10284A0090011DE0FEA3E0FF900118E02FFF900128
:10285A0017E03E90011B123C8E90011DE0FEA3E0A2
:10286A00FF900118E02FFF900117E03EFE90011B38
:10287A00E0FCA3E0FD90011AE02DFD900119E03C77
:10288A00FC123CA190011BE0FEA3E0FF900118E0BE
:10289A002FFF900117E03EFE90011DE0FCA3E0FD32
:1028AA0090011AE02DFD900119E03CFC123CA19028
:1028BA00011BE0FEA3E0FFC3900118E09FFF900117
:1028CA0017E09EFE90011DE0FCA3E0FD90011AE0D6
:1028DA002DFD900119E03CFC123CA190011DE0FE87
:1028EA00A3E0FFC3900118E09FFF900117E09EFE4E
:1028FA0090011BE0FCA3E0FD90011AE02DFD900180
:10290A0019E03CFC123CA190011BE0FEA3E0FFC3CE
:10291A00900118E09FFF900117E09E123C8B9001F6
:10292A001DE0FEA3E0FFC3900118E09FFF9001178E
:10293A00E09EFE90011B123C8F90011CE004F07097
:10294A000690011BE004F0C390011FE064809480AC
:10295A00502590011BE0FEA3E07802C333CE33CEAC
:10296A00D8F92406FFE43EFE900120E02FF0900102
:10297A001FE03EF002281D90011DE0FEA3E0FFC308
:10298A0090011CE09FFF90011BE09EFEEF7802C3BE
:10299A0033CE33CED8F9240AFFE43EFE900120E07C
:1029AA002FF090011FE03EF090011EE024FFF0900E
:0929BA00011DE034FFF002281DAC
:0129C30022F1
:102B4B00900041EEF0A3EFF0900045EBF0900043C6
:052B5B00ECF0A3EDF019
:102B600090004AECF0A3EDF0900046E0FF13131341
:102B7000541FFEEF540760047F0180027F00EE2F98
:102B8000FF900046E0C313FEEF8EF0A490004CF0DF
:102B9000900045E024E0F0E4F990004CE0FFE9C348
:102BA0009F4003022CC2900046E0FFB40C1290003C
:102BB00045E075F00CA42433F582E5F03400803153
:102BC000EFB41012900045E075F010A424A7F58230
:102BD000E5F03404801B900046E064186003022C8A
:102BE000C2900045E075F024A42497F582E5F03406
:102BF0000AF583E58229F582E43583F583E4939031
:102C00000048F0E4900049F0900048E030E713906D
:102C10000041E0FEA3E0FFA3E0FCA3E0FD90011370
:102C20008017900047E07014900041E0FEA3E0FFA1
:102C3000A3E0FCA3E0FD900115123C00900048E0E9
:102C400025E0F0900044E004F07006900043E004BA
:102C5000F090010EE0FEA3E0FF900043E0FCA3E053
:102C6000FDC39FEC9E505B90004AE0FEA3E0FFC3D3
:102C7000ED9FFDEC9EFC900046E07A00B50530EA41
:102C8000B5042C900043EEF0A3EFF0900042E00476
:102C9000F07006900041E004F090010CE0FEA3E02B
:102CA000FFC3900042E09F900041E09E40102290C0
:102CB0000049E004F0E0C394085003022C08090224
:022CC0002B994E
:012CC20022EF
:073BAF00C3EF9E14FD7F0A25
:083BB600900147EFF0A3EDF0D0
:103BBE00A312217900000001900148E0FF14F0EFFC
:103BCE006020A3E0F8A3E0F9A3E0FAA3E0FB9001E4
:103BDE0047E0FFE4FCFDFE12203A90014912216DF0
:103BEE0080D6900149E0FCA3E0FDA3E0FEA3E0FF38
:013BFE0022A4
:0E3473009000E6EEF0A3EFF0A3ECF0A3EDF076
:10348100E49000F2F09000F0F09000EEE0FF900088
:10349100F0E0FEC39F400302354E123BAFA804A9E2
:1034A10005AA06AB079000EAE0FCA3E0FDA3E0FE5D
:1034B100A3E0FF1220C5E47B0AFAF9F81220C590B7
:1034C10000F1EBF0A3E070459000EEE014FF9000F6
:1034D100F0E0FEC39F5036A3E0702C9000EFE0FBBC
:1034E100C3138EF0A4FF9000E7E02FFF9000E6E009
:1034F10035F0FE9000E8E0FCA3E0FD900046EBF023
:10350100E4A3F07B20803A9000F27401F09000EF88
:10351100E0FAC313FFA3E0FEEF8EF0A4FF9000E7F3
:10352100E02FFF9000E6E035F0FE9000E8E0FCA31C
:10353100E0FD9000F1E02430FB900046EAF0E4A3C6
:0D354100F0122B4B9000F0E004F002348AF1
:01354E00225A
:0E3059009000D8EEF0A3EFF0A3ECF0A3EDF0A2
:10306700E49000E5F09000E3F09000E0E0FF9000CE
:10307700E3E0FEC39F4003023181123BAFA804A9DE
:1030870005AA06AB079000DCE0FCA3E0FDA3E0FE89
:10309700A3E0FF1220C5E47B0AFAF9F81220C590D5
:1030A70000E4EBF0A3E060030231389000E0E014A5
:1030B700FF9000E3E0FEC39F5077A3E0706D9000A0
:1030C700E2E0F99000E130E72BE0FBC3138EF0A4B8
:1030D700FF9000D9E02FFF9000D8E035F0FE900078
:1030E700DAE0FCA3E0FD900046EBF0E95401A3F021
:1030F7007B30807AE0FBC313FF9000E3E0FEEF8EA6
:10310700F0A4FF9000D9E02FFF9000D8E035F0FE43
:103117009000DAE0FCA3E0FD900046EBF09000E2BF
:10312700E05401900047F07B2080439000E5740154
:10313700F09000E1E0FAC313FF9000E3E0FEEF8EAA
:10314700F0A4FF9000D9E02FFF9000D8E035F0FE03
:103157009000DAE0FCA3E0FD9000E4E02430FB906F
:103167000046EAF09000E2E05401900047F0122B8D
:0A3177004B9000E3E004F00230701A
:01318100222B
:10338E00900034EEF0A3EFF0A3ECF0A3EDF0A3EA7F
:04339E00F0A3EBF0BD
:1033A200900034E0FEA3E0FF900040F0900039E08E
:1033B2002FF0900038E03EF0900036E0FEA3E0FFF0
:1033C20090003BE02FF090003AE03EF090003DE0AC
:1033D200FBA3E0FAA3E0F9121F7EFFD3947E400321
:1033E200023472EFC394205003023472900038E02A
:1033F200FEA3E0FF900035E09F900034E09E401F66
:10340200900040E0FF900034E4F0A3EFF090003C25
:10341200E0FF900037E02FF0900036E03400F090AB
:10342200003AE0FEA3E0FF900036E0FCA3E0FDC31B
:103432009FEC9E503B900034E0FEA3E0FF121F7E03
:10344200FB90003CE0900046F0E4A3F0122B4B907E
:10345200003CE0C313FF900035E02FF0900034E011
:103462003400F090003EE475F001121FD60233CE14
:013472002237
:102F2E00900034EEF0A3EFF0A3ECF0A3EDF0A3EBE2
:072F3E00F0A3EAF0A3E9F0A3
:102F4500900038E0FBA3E0FAA3E0F9121F7E7003BE
:102F5500023058900034E0FAA3E0FBFFAE02C00651
:102F6500C007A3E0FCA3E0FDEB241FFBE43AFA90C5
:102F75000036E0FEA3E0241CFFE43E900059F0A3D8
:102F8500EFF0D007D0061236FCE490003BF090003D
:102F95003BE0FFC39414400302303D900038E0FB52
:102FA500A3E0FAA3E0F9121F7EFE75F076EFA424E4
:102FB500F3F582E5F03417F583E4936E70719000B4
:102FC50001121F97FF90003BE075F076A424F4F5FD
:102FD50082E5F03417F583E4936F7053FB90003B63
:102FE500E075F076A424F5F582E5F03417F583E570
:102FF500822BF582E43583F583E493FF90003CE46E
:10300500F0A3EFF0E4FA90003DE030E705900113FE
:103015008003900115123D6390003DE025E0F0909E
:10302500003CE033F00AEAB408DC0BEBB474AE9074
:10303500003BE004F0022F93900039E475F0021292
:103045001FD6900035E02420F0900034E03400F0E5
:03305500022F4502
:013058002255
:102E01009000B0EEF0A3EFF0A3ECF0A3EDF0A3EA95
:042E1100F0A3EBF04F
:102E1500E49000BBF0A3F0A312217900000000901C
:102E250000C1122179000000009000B2E0FCA3E08F
:102E3500FDA3E0FEA3E0FF9000B0E0FAA3E02FFFC2
:102E4500EA3ECF24FFFBEF34FFFA9000B6E0FEA385
:102E5500E0FF9000B2E0F8A3E02FFFE83ECF24FFAB
:102E6500CF34FF900059F0A3EFF09000B01236F781
:102E75009000B6E0FCA3E0FD9000B4E0FEA3E0FF07
:102E8500121FC4EF25E0FFEE33FEE4FCFD9000C108
:102E950012216D9000BDA3A3E0FEA3E0FDAC0624C6
:102EA50001FFE43CFE9000B8E0FBA3E0FAA3E0F9E3
:102EB5008F828E83121F97FF9000BBE4F0A3EFF083
:102EC500E0F8E4F0E89000BBF08D828C83121F9748
:102ED500FF9000BBE0FEA3E04FFF9000BBEEF0FECD
:102EE500A3EFF0123D68A3E0FCA3E0FDA3E0FEA381
:102EF500E02402FFE43EFEE43DFDE43CFC9000BD21
:102F050012216D9000C1E0FCA3E0FDA3E0FEA3E06B
:102F1500FF9000BDE0F8A3E0F9A3E0FAA3E0FBC34E
:082F25001221575003022E98FF
:012F2D002281
:0B3E4E00C2A1D2A3D2A2D2A1C2A32223
:103D7E00C2A1E4FEEFC4131313540124FF92A2EF69
:0C3D8E0025E0FFC2A1D2A10EEEB408E8AF
:013D9A002206
:103CCB00E4900155F0A3F0C2A1FDFC900156E02554
:103CDB00E0F0900155E033F0D2A1C2A1A2A0E433F1
:103CEB00FFE0F0A3E04FF00DBD00010CED640C4CB8
:0A3CFB0070D9900155E0FEA3E0FF30
:013D0500229B
:0729C400EEF0A3EFF07F909D
:0229CB00AB0758
:1029CD00C2A1C2A3E4900096F0AF03123D7E900029
:1029DD00977406F0900097E014F0E070F7D2A10024
:1029ED0000C2A10000123CCB900096E025E0249897
:1029FD00F582E43400F583EEF0A3EFF0900096E05D
:102A0D0004F0E0C3940A40C1D2A3E4900096F09084
:102A1D000096E0FFC394094003022AD2EF04A3F00D
:102A2D00900097E0FFC3940A4003022AC9EF25E006
:102A3D002498F582E43400F583E0FEA3E0FF9000D6
:102A4D0096E0FB25E02498F582E43400F583E0FC64
:102A5D00A3E0C39FEC9E505BEB25E02498F582E448
:102A6D003400F583E0FEA3E0FFE4FCFD9000AC1222
:102A7D00216D900097E0FA25E02498F582E434006A
:102A8D00F583E0FEA3E0FFEB25E02498F582E43426
:102A9D0000F583EEF0A3EFF09000ACA3A3E0FEA34E
:102AAD00E0FFEA25E02498F582E43400F583EEF0AA
:102ABD00A3EFF0900097E004F0022A2D900096E02D
:102ACD0004F0022A1C9000AC122179000000009045
:102ADD0000967402F09000ACE0F8A3E0F9A3E0FAE0
:102AED00A3E0FB900096E025E02498F582E4340005
:102AFD00F583E0FEA3E0FFE4FCFDEB2FFFEA3EFED5
:102B0D00ED39FDEC38FC9000AC12216D900096E093
:102B1D0004F0E0B408BF9000ACE0FCA3E0FDA3E03E
:102B2D00FEA3E0FFE47B06FAF9F8123C479000ACF7
:0D2B3D0012216D9000ACA3A3E0FEA3E0FF09
:012B4A002268
:10318200123E4E7FD01229CB9001211229C4900108
:1031920027EEF0A3EFF07FD01229CB900123122962
:1031A200C4AD07AC06900123E0FEA3E0FF9001212D
:1031B200E0FAA3E0FBD39FEA9E400AA3A3EB9FFFA2
:1031C200EA9EA38017900121E0FEA3E0FFC39001D5
:1031D20024E09FFF900123E09E900125F0A3EFF0F1
:1031E200900127E0FEA3E0FFD39DEE9C4007EF9DF8
:1031F200FFEE9C800E900127E0FEA3E0FFC3ED9F4F
:10320200FFEC9EA3F0A3EFF0D3900126E09432905E
:103212000125E09400500E90012AE0943290012999
:10322200E0940040037F0022900123E0FEA3E0FF30
:10323200900122E02FFF900121E03EC313FEEF1325
:10324200FF9000F3EEF0A3EFF0900128E02DFF9045
:103252000127E03CC313FEEF13FF9000F5EEF0A34D
:10326200EFF09000F4E054F0F09000F6E054F0F04B
:10327200C39000F4E094649000F3E09400400FD314
:103282009000F6E094D89000F5E0940E40037F00A1
:03329200227F0197
:013295002216
:102CC300E490014DF0123182EF7003022DF6900172
:102CD30012E06003022D5C9000F3E0FEA3E0FFE44A
:102CE300FCFD9000F712216D9000F7E0FCA3E0FDDE
:102CF300A3E0FEA3E024B0FFEE34FEFEED34FFFDBF
:102D0300EC34FFFCE47BF0FAF9F812203AE4FB7AA6
:102D13000DF9F81220C59000F712216D9000F5E02F
:102D2300FEA3E0FFE4FCFD9000FB12216D9000FB8D
:102D3300E0FCA3E0FDA3E0FEA3E02410FFEE34FFDC
:102D4300FEED34FFFDEC34FFFCE47B407A01F9F83F
:102D530012203AE47B54022DE19000F5E0FEA3E05B
:102D6300FFE4FCFDA312216D9000F7E0FCA3E0FD5E
:102D7300A3E0FEA3E02410FFEE34FFFEED34FFFDDD
:102D8300EC34FFFCE47B407A01F9F812203AE47B4F
:102D9300547A0DF9F81220C59000F712216D9000B6
:102DA300F3E0FEA3E0FFC3E49FFF74109EFEE4FC88
:102DB300FD9000FB12216D9000FBE0FCA3E0FDA35E
:102DC300E0FEA3E024B0FFEE34FEFEED34FFFDECA5
:102DD30034FFFCE47BF0FAF9F812203AE4FB7A0DB5
:102DE300F9F81220C59000FB12216D90014D74017A
:0D2DF300F08001E49000FFF090014DE0FF42
:012E000022AF
:0300000002386E55
:0C386E00787FE4F6D8FD7581210238B5A2
:101F7E00BB010689828A83E0225002E722BBFE0261
:091F8E00E32289828A83E4932294
:101F9700BB010CE58229F582E5833AF583E02250FF
:101FA70006E92582F8E622BBFE06E92582F8E22249
:0D1FB700E58229F582E5833AF583E4932263
:101FC400EF8DF0A4A8F0CF8CF0A428CE8DF0A42E31
:021FD400FE22EB
:101FD600C5F0F8A3E028F0C5F0F8E5821582700296
:061FE6001583E038F02233
:101FEC00A3F8E0C5F025F0F0E582158270021583A8
:061FFC00E0C838F0E82205
:10200200BB0110E58229F582E5833AF583E0F5F01C
:10201200A3E0225009E92582F886F008E622BBFEF9
:102022000AE92582F8E2F5F008E222E5832AF5833F
:08203200E993F5F0A3E9932204
:10203A00E88FF0A4CC8BF0A42CFCE98EF0A42CFC45
:10204A008AF0EDA42CFCEA8EF0A4CDA8F08BF0A4C3
:10205A002DCC3825F0FDE98FF0A42CCD35F0FCEB22
:10206A008EF0A4FEA9F0EB8FF0A4CFC5F02ECD39E7
:0F207A00FEE43CFCEAA42DCE35F0FDE43CFC2254
:1020890075F008758200EF2FFFEE33FECD33CDCC0E
:1020990033CCC58233C5829BED9AEC99E582984091
:1020A9000CF582EE9BFEED9AFDEC99FC0FD5F0D66E
:1020B900E4CEFBE4CDFAE4CCF9A88222B800C1B998
:1020C9000059BA002DEC8BF084CFCECDFCE5F0CBD6
:1020D900F97818EF2FFFEE33FEED33FDEC33FCEB0F
:1020E90033FB10D703994004EB99FB0FD8E5E4F9CA
:1020F900FA227818EF2FFFEE33FEED33FDEC33FCB7
:10210900C933C910D7059BE99A4007EC9BFCE99AAA
:10211900F90FD8E0E4C9FAE4CCFB2275F010EF2FEF
:10212900FFEE33FEED33FDCC33CCC833C810D707EF
:102139009BEC9AE899400AED9BFDEC9AFCE899F82A
:0E2149000FD5F0DAE4CDFBE4CCFAE4C8F922BD
:103C4700C2D5E830E70FB2D5E4C39BFBE49AFAE4A8
:103C570099F9E498F8EC30E717B2D5123C7D1220B9
:103C6700C5E4C39BFBE49AFAE499F9E498F8800366
:103C77001220C530D50DE4C39FFFE49EFEE49DFDF1
:043C8700E49CFC229B
:10215700EB9FF5F0EA9E42F0E99D42F0EC6480C8FF
:0621670064809845F0229F
:0C216D00ECF0A3EDF0A3EEF0A3EFF022E5
:10217900A8828583F0D083D08212219012219012F7
:102189002190122190E473E493A3C583C5F0C5831C
:10219900C8C582C8F0A3C583C5F0C583C8C582C8B0
:0121A9002213
:101C1900E5082437F582E43400F583E005082290CD
:101C29000034300703900037E475F0011221BC023B
:101C39001F7E2000E97F2ED2008018EF540F2490D8
:101C4900D43440D4FF30040BEF24BFB41A0050033E
:101C59002461FFE50960021509050CE50C70020510
:101C69000B30070E900034E475F0011221BCEF022D
:101C790021AA023D397403D2078003E4C207F5089B
:101C89009000341221D3E4F509F50BF50CE5096050
:101C9900077F20121C5C80F5750AFFC201C200C2D1
:101CA90002C203C205C206C208121C28FF700D3009
:101CB90007057F00121C6DAF0CAE0B22B4255FC265
:101CC900D5C204121C28FF24D0B40A00501A75F09A
:101CD9000A780930D50508B6FF0106C6A426F620FC
:101CE900D5047002D20380D924CFB41A00EF50046E
:101CF900C2E5D204021E6ED20180C6D20080C0D2D3
:101D09000280BCD2D580BAD20580B47F20121C5C77
:101D19002002077401B5090040F1121C19FF121CB9
:101D29005C021C96D208D2068095121C19FB121C63
:101D390019FA121C19F94A4B7006793F7A1F7BFF71
:101D490020022EE509602A7E008E82758300121F0B
:101D59009760060EEE650A70F0C2D5EBC0E0EAC0E6
:101D6900E0E9C0E0EE121EB5D0E0F9D0E0FAD0E02B
:101D7900FB121F7EFF60AAEBC0E0EAC0E0E9C0E009
:101D8900121C5CD0E02401F9D0E03400FAD0E0FB69
:101D9900E50A0460DCD50AD980877BFF7A1E79B110
:101DA900D202809C791080027908C206C208800894
:101DB900D2D5790A8004790AC2D5E50A047002F5F8
:101DC9000AE4FAFDFEFF121C19FC7B08200113121C
:101DD9001C19FD7B1030000A121C19FE121C19FF78
:101DE9007B20EC3382D592D55013C3E43000069F93
:101DF900FFE49EFEE42001039DFDE49CFCE4CBF896
:101E0900C201EC700CCFCECDCCE824F8F870F38089
:101E190017C3EF33FFEE33FEED33FDEC33FCEB3349
:101E2900FB994002FB0FD8E9EB300105F8D0E0C47B
:101E390048B201C0E00AEC4D4E4F78207B0070C2D9
:101E4900EAB50A0040BCC0E0121EB7D0F0D0E020CD
:101E59000104C4C0E0C4B201C0F0121C45D0F0D5E1
:101E6900F0EB021C961221DC1D33531DAD581D04E5
:101E79004C1D00421DB14F1DB9441DB9491D1943DF
:081E89001DBF551DA3461DA35A
:101E9100451DA3471F5F501D082D1D0C2E1D2F2B07
:101EA1001D10231D2D201F482A1CC84800001D2776
:101EB1003F3F3F00790AA2D5200314300509B9102C
:101EC100020404B9080104A2D5200602500104202D
:101ED10002689202B509005034C0E07F2030031936
:101EE1007F30A20272067205500F121F0EC202C28B
:101EF10006C205C2087F30800F300503E9C0E01239
:101F01001C5C300503D0E0F9D0E0B509CC300517F1
:101F11007F30B9100C121C5C7F583004077F788029
:101F210003B90803121C5C3002057F2D021C5C7F83
:101F3100202008F87F2B2006F322920280CF286E02
:101F4100756C6C2900D201121C193001F8C201789C
:101F51000930D50108F6021CC82D50434958121CFE
:101F6100192403B405004001E4901F5A93121C4D3B
:0D1F7100743A121C4DD203750904021DAD17
:10387A00023AE8E493A3F8E493A34003F68001F242
:10388A0008DFF48029E493A3F85407240CC8C3334F
:10389A00C4540F4420C8834004F456800146F6DF1E
:1038AA00E4800B0102040810204080903E25E47E4B
:1038BA00019360BCA3FF543F30E509541FFEE49313
:1038CA00A360010ECF54C025E060A840B8E493A3DA
:1038DA00FAE493A3F8E493A3C8C582C8CAC583CA05
:1038EA00F0A3C8C582C8CAC583CADFE9DEE780BEBD
:013E3400008D
:1021AA00BB010689828A83F0225002F722BBFE0114
:0221BA00F3220E
:1021BC00F8E0FBA3A3E0F925F0F0E58215827002AC
:0721CC001583E0FA38F02250
:0921D300EBF0A3EAF0A3E9F0220D
:1021DC00D083D082F8E4937012740193700DA3A392
:1021EC0093F8740193F5828883E4737402936860A6
:0621FC00EFA3A3A380DFA6
:103D3900EFB40A07740D123D44740A309811A8991A
:103D4900B8130CC2983098FDA899C298B811F630EA
:073D590099FDC299F59922C2
:00000001FF
