:0A0600003F065B4F666D7D077F6FBC
:03061A00010800D4
:0B05EA00EF1FAC0670011E4C70F622E3
:04035900AB07AA063E
:10035D00C3EA648094805010750940EB1B70011A3C
:10036D006303FF6302FF8003E4F509AD03AC02EC08
:10037D001202068F148E138D128C11E4FFFE7DC8B0
:10038D007C40AB14AA13A912A8111200FBE4FBFACE
:10039D00F9783F12000A12023FAA06AB077C277DAF
:1003AD0010AF03AE021202C07E037FE8CFCDCFCED9
:1003BD00CCCE1202C074002FF58274063EF583E494
:1003CD0093F50A7C037DE8AF03AE021202C07E00F6
:1003DD007F64CFCDCFCECCCE1202C074002FF5826C
:1003ED0074063EF583E493F50B7C007D64AF03AE9C
:1003FD00021202C07E007F0ACFCDCFCECCCE12022C
:10040D00C074002FF58274063EF583E493F50CAEAF
:10041D0002AF037C007D0A1202C074002DF58274B8
:08042D00063CF583E493F50D94
:0104350022A4
:1004C200E4FDED14601414601914601A14601F1412
:1004D200602024057022D2A28002C2A2D2A3D2A49A
:1004E2008016D2A28002C2A2C2A3D2A4800AD2A241
:1004F2008002C2A2D2A3C2A474092DF8E6F5807FBD
:0D050200647E001205EAE4F5800DBD06B52B
:01050F0022C9
:0B05F5001205D31203591204C280F556
:1005B500D3EF9400EE940040147D6E7C00ED1D7029
:0D05C500011CED4C70F7EF1F70E61E80E387
:0105D2002206
:10059000C2B77B46AF031BEF70FAD2B7E4FB30B7AC
:1005A000117F017E001205B50BEBD3940540EF7F60
:0405B00000227F01A5
:0105B4002224
:0C0510001205907F017E001205B57FCC23
:10051C00E4FBFAC2B70513E51370020512EF139250
:10052C00B7751200751306E5131513AC127002158E
:10053C00124C70F3D2B7EFC313FF0BBB00010AEBE5
:05054C0064084A70CEB6
:010551002287
:100552007D087C00C2B70FBF0000D2B70FBF0000FA
:100562000FBF0000A2B7E433C43333335480FBE936
:10057200C3134BF97E007F04EF1FAA0670011E4AC7
:0D05820070F6ED1D70011CED4C70C9AF014D
:01058F002249
:08060A001205107F4402051CDB
:080612001205107FBE02051C59
:1005D300E4FFFE12060A1206121205528F111205CB
:0605E30052EFFEE511FFDE
:0105E90022EF
:100003000202ABE86480F8E933E83360110460F07E
:10001300ED33EC337009E8FCE9FDEAFEEBFF220463
:1000230060DED3EB9FEA9EE99DE8C2E78CF0C2F75E
:1000330095F0400CE8CCF8E9CDF9EACEFAEBCFFB2A
:1000430012027685D0F05804700320D5B3E804700B
:10005300075002B2D50202B592D5EC0460F7E4CCA6
:10006300C0E0C398F8603B94186008400DD0E0FBF3
:1000730002028DE4FBFAC9FC8028E830E406E4C9F7
:10008300FBE4CAFCE830E305E4C9CACBFCE8540747
:100093006010F8C3E913F9EA13FAEB13FBEC13FC52
:1000A300D8F130F52FC3E49CFCEF9BFFEE9AFEEDF5
:1000B30099FDD0E0FBEF4E4D4C701222DB030202A0
:1000C300B2EC2CFCEF33FFEE33FEED33FDED30E706
:1000D300EB02028DEF2BFFEE3AFEED39FDD0E0FB94
:1000E30050130BBB00030202B5ED13FDEE13FEEF3D
:0800F30013FFEC13FC02028D67
:1000FB00EC4D6011E8497017ED33EC3304600DE4FF
:10010B00FCFFFEFD22E933E8330470F80202AB1268
:10011B00027658046009E4CC248150062850090269
:10012B0002B52840030202B2C0E0EB4A7044B9802A
:10013B0006D0E0FB0202A1EF4E701CBD8008EBFF66
:10014B00EAFEE9FD80EBE98DF0A4FEE5F00201E4A7
:10015B00E9CDF9EAFEEBFFEF89F0A4FCE5F0CE89DF
:10016B00F0A42EFFE435F0CD89F0A42DFEE435F09C
:10017B008067EF4E7005BD80D780C3EF8BF0A4ACCA
:10018B00F0EE8BF0A42CFCE435F0F8EF8AF0A42C05
:10019B00E5F038FCE433CB8DF0A42CFCE5F03BF818
:1001AB00EE8AF0A42CFCE5F038F8E433CF89F0A408
:1001BB002CFCE5F038CF3400CE89F0A42FFFE5F00E
:1001CB003EFEE433C98DF0A42EFEE5F039CD8AF066
:1001DB00A42FFFE5F03EFEE43DFD33D0E0FB5007DE
:1001EB000BBB000F0202B5EC2CFCEF33FFEE33FE22
:0601FB00ED33FD02028D50
:1002010075F020800E75F010800575F0087D007E78
:10021100007F003392D530D5031202F6EC33401043
:10022100EF33FFEE33FEED33FDEC33FCD5F0ED2281
:0E023100E5F0247EA2D513CC92E7CDCEFF22BD
:10023F00EDD2E7CD33EC3392D524814006E4FFFEB7
:10024F00FDFC22FCE4CFCECDCC24E0501174FF8016
:10025F00EDC3CC13CCCD13CDCE13CECF13CF0470B3
:07026F00F030D5DE0202F6BB
:10027600E9D2E7C933E833F892D5EDD2E7CD33ECCE
:0702860033FC5002B2D52247
:10028D00EC30E7100FBF000C0EBE00080DBD0004D2
:10029D000BEB6014A2D5EB13FCED92E7FD2274FF7E
:1002AD00FCFDFEFF22E480F8A2D574FF13FC7D80D7
:0302BD00E480EFEB
:03000000020436C1
:0C043600787FE4F6D8FD75811402047D87
:1002C000C2D5EC30E709B2D5E4C39DFDE49CFCEE59
:1002D00030E715B2D5E4C39FFFE49EFE120304C3CA
:1002E000E49DFDE49CFC800312030430D507C3E4C5
:0602F0009FFFE49EFE22C8
:0E02F600C3E49FFFE49EFEE49DFDE49CFC2219
:100442000205F5E493A3F8E493A34003F68001F2D6
:1004520008DFF48029E493A3F85407240CC8C333BB
:10046200C4540F4420C8834004F456800146F6DF8A
:10047200E4800B010204081020408090061AE47EFA
:10048200019360BCA3FF543F30E509541FFEE4937F
:10049200A360010ECF54C025E060A840B8E493A346
:1004A200FAE493A3F8E493A3C8C582C8CAC583CA71
:1004B200F0A3C8C582C8CAC583CADFE9DEE780BE29
:01061D0000DC
:10030400BC000BBE0029EF8DF084FFADF022E4CCDD
:10031400F875F008EF2FFFEE33FEEC33FCEE9DECA6
:10032400984005FCEE9DFE0FD5F0E9E4CEFD22EDEC
:10033400F8F5F0EE8420D21CFEADF075F008EF2F36
:10034400FFED33FD4007985006D5F0F222C398FD27
:050354000FD5F0EA22C4
:00000001FF
