:10008700C0F9A4B0999282F880908883C6A1868E21
:010097000068
:0B00B200EF1FAC0670011E4C70F62220
:10000300E4F50975900FE590640F605D7FE87E036A
:100013001200B2E590640F605075900FAF90EF241B
:10002300F5601024FE601114601324077012E4F5C8
:1000330008800D75080180087508028003750803A0
:100043007590F0AF90EF2450601124E0601124F01C
:10005300601124707013850808800E740480067480
:10006300088002740C2508F508C3E509648094B27E
:100073005011E59064F0600B7F647E001200B205BE
:030083000980E60B
:010086002257
:0E009800120003E50890008793F4F58080F2D3
:030000000200A655
:0C00A600787FE4F6D8FD7581090200980F
:00000001FF
