:03000000020517DF
:0C051700787FE4F6D8FD75810B02046EBD
:10000300FFFFFFFFFFFFFFFFFFFFFFFFFFFFFFFFFD
:10001300FFFFFFFFFFFFFFFFFFFFFFFFFFFFFFFFED
:10002300FFFFFFFFFFFFFFFFFFFFFF3F1FCFCFE7F5
:10003300F7F3F3F3FBFBF9F9FDFDBDFDFDFDFDBD9D
:10004300BDBD7DFDFDFDFDF9F9F9FBFBFBF3F3F709
:10005300E7EFCFCFDF9F3F3F7FFFFFFFFFFFFFFFB5
:10006300FFFFFFFFFFFFFFFFFFFFFFFFFFFFFFFF9D
:10007300FFFFFFFFFFFFFFFFFFFFFFFFFFFFFFFF8D
:10008300FFFFFFFFFFFFFFFFFFFFFFFFFFFFFFFF7D
:10009300FFFFFFFFFFFFFFFFFFFFBFBFBF9FDFDFCD
:1000A300DF9F9F8F8F0F0F0F0F0F0F0E0C0B0B1B6D
:1000B300171717171F1F1F1F1F3F3F3F3F37377F5D
:1000C3007F7B7CFFFFFFFFFFFFFFFFFFFFFFFFFFC4
:1000D300FFFFFFFFFFFFFFFFFEF8018F8FFFFFFF13
:1000E3007F7F7F3F3F3F1F1F0F0F0F0F070707073D
:1000F3000703030303F3FBFBFBFFFBFFFFFFFFFF11
:10010300FFFFFFFFFFFFFF7F7FFFBFBFFFFFFFDF9C
:10011300DFDFDFDFDFDFDFDFFFFFBFBFBFFF7FFF2C
:10012300FFFFFFFFFFFFFFFCF0F0C08000000000B7
:1001330000000000000000000000000000000000BC
:1001430000000000C0C0C0C0C1C1E3FFFFFFFFFF4C
:10015300FFFF7F7F3F9FCFCFE3F8FEFFFFFFF0F06E
:10016300E0E0F0F07070C0C080808080808080808C
:1001730080808080C0E0FFFFFFFFFFFFFFFFFFFFE6
:10018300FFFFFFFBFBE0E6CFCFDFDF9FBFBFBFBFBC
:10019300B5BFBFAFBFBBBBBBB9FBFFFFFFEFDFD635
:1001A300D6D9DFDFDFDFDFDFDFDFDFFFFEFEFEFCD1
:1001B300B8B8B8F0F070F0F0F0F0F0F0F0F8F8F84C
:1001C300F87C7C7E7F7F7F7F4949FFFF5FEFEFB73E
:1001D300BBFDDEDEFF7F6F6F7FFFF7DFDF0B0F0FF0
:1001E3000F0F070707070707070F0F0F0F0F0F0F54
:1001F3000F1F1F1F1F3F3F3F3F7F7FFFFFFFFFFF7C
:10020300FFFFFFFFFFFFFFFFFFFFFFFFFFFFFFFFFB
:10021300FFFFFFFFFFFFFFFFFFFFFFFFFF0FEFF7F3
:10022300F7FFFBFFFFFF7FBDFDFDDD5D5DFDDDDD59
:10023300DFFFFFFFBB7FF7F7EFDE3D7B7B069ECE45
:10024300CEE666B0D0D0C080000000000000000001
:10025300000001010181C3C343E77F7878787070A0
:100263007070707070707070787878787C7CFCFC3B
:10027300FEFEFFFFFFFFFFFFFFFFFFFFFFFFFFFF8D
:10028300FFFFFFFFFFFFFFFFFFFFFFFFFFFFFFFF7B
:10029300FFFFFFFFFFFFFFFF7F7F7F7F3F3E3C3975
:1002A300393B373737372E2F2F2F2A2A2A6F6F6F75
:1002B3007F77F7F6FAFC000000000000000101035D
:1002C3000300038707078F9FFFFFFE3E1E0E0E8668
:1002D300C2E2F0F0D9E9F0F0FCFCFCBEBE1E0EE673
:1002E300E6E6F6B61212121212969676268C8C8CCD
:1002F300FCF8F1F1010307FFFFFFFFFFFFFFFFFF23
:10030300FFFFFFFFFFFFFFFFFFFFFFFFFFFFFFFFFA
:10031300FFFFFFC1810000107CFEFEFEFEFFFFFF1A
:10032300FFFF8F8F8F277777FBFBFB1B1B1B1B1A93
:10033300123636F4F4E8E9E9C31326E6E6CE9C98D0
:1003430098BB36756F6F5FFF83833E3F7CF8F8F190
:10035300F3E7E7E7CFCF9F9F9FBFBFBFBF3E3E7C83
:100363007D7D79797B7B7B7B3B3B3BBBBBB99999A0
:100373009DDC4C4C4E2E878787E3F7FFFFFFFFFF83
:10038300FFFFFFFFFFFFFFFFFFFFFFFFFFFFFFFF7A
:10039300FFFFFFFFFFFFFFFEFCFCF9F9F9F3F3F7A3
:1003A300F7E7E7E7E7EFEFEFEEEEEECEEEEEEEEF99
:1003B300EFEFEFEFE7F7F3F3F3F8FCFEFEFFFFFFDA
:1003C300FFFFFFFFFEFEFEFEFCFCFCFDFDF9F9F85E
:1003D300F9FBFBFBFBF3F7F7F7F7F7F7F7F7F7F79C
:1003E300F7F7F7F7F7F7F7F7F3FBFBFBFBF9FDFD80
:1003F300FCFCFEFEFEFFFFFFFFFFFFFFFFFFFFFF13
:10046E001204031204CCE4F5087F407E001204F55A
:10047E00E50824B0FFE433FE1204F57F107E00126F
:10048E0004F57F047E001204F5E4F5097403250BD0
:10049E00F5827400350AF583E493F4FFE4F4FE125A
:1004AE000506050BE50B7002050A0509E509C3945F
:0E04BE008040D90508E508C3940840AD80FED3
:1004F500C2B2D2A5C2A6C2A700008F800000D2A7B3
:0105050022D3
:10050600C2B2D2A5D2A6C2A700008F800000D2A791
:0105160022C2
:10040300C2B3E4FF0FBF64FCC2B2D2B37FE27E008B
:100413001204F5E4FF0FBF64FC7FA17E001204F514
:100423007FC81204F57FA61204F57FA41204F57F9A
:10043300A21204F57FF81204F57F011204F57F81FF
:100443001204F57F231204F57F251204F57F2F1282
:1004530004F5E4FF0FBF64FC7F407E001204F57FC8
:0A046300AF1204F5E4FF0FBF64FCC4
:01046D00226C
:1004CC00E4FDED24B0FFE433FE1204F57F107E0052
:1004DC001204F57F041204F5E4FCE4FFFE12050699
:0804EC000CBC80F60DBD08DA1E
:0104F40022E5
:00000001FF
