:0300000002036593
:0C036500787FE4F6D8FD7581070202AE37
:10034300CBBEB9ABCFDED3D0BCBCBFC6D6D0C6D52F
:0103530000A9
:1002AE009000007480F01201F91202EBE49000004D
:1002BE00F0900000E0C3940850F21202EB900000A0
:1002CE00E0FD7BFF7A037943E4FF1201137F647E26
:0D02DE0000120312900000E02402F080D412
:10031200D3EF9400EE9400400F7D267C82DCFEDD5C
:08032200FAEF1F70EB1E80E8EA
:01032A0022B0
:10000300C6D50040445464457E4444447E4564540C
:10001300444000000000FF49494949494949FF005C
:100023000000D6D00000FC08080808FF08080808EC
:10003300FC08000000000702020202FF02020202A3
:1000430007000000BFC6000000FF0000CC220091A3
:1000530051FE72921210000101FF02020204040415
:1000630000FF00010204BCBC000848C8487F4848A0
:10007300C8002848FF88080800206021120C0C13D0
:10008300204040007F804101D3D000040404E424D5
:100093002424272C34E444840400000000007FC996
:1000A3004929090909FF00000102CFDE0000007E93
:1000B3004A4A4ACA4AFE00824E3202FE00206021AA
:1000C300120C032040FF0003040200FFB9AB0080C1
:1000D30080C060100E0000840E30408000000000DD
:1000E3000130781410103123242870200100CBBE76
:1000F3000000FE0202129292929292929292100049
:1001030000003F4020000F0404040404041F000007
:07032B00E02404FFE433FEAF
:10033200C2B2D2A5C2A6C2A700008F800000D2A777
:010342002298
:10035400C2B2D2A5D2A6C2A700008F800000D2A745
:010364002276
:1001F900C2B3E4FF0FEFB464FBC2B2D2B37FE27EB5
:1002090000120332E4FF0FEFB464FB7FA17E0012FA
:1002190003327FC81203327FA61203327FA412036E
:10022900327FA21203327FF81203327F01120332A6
:100239007F811203327F231203327F251203327F1B
:100249002F120332E4FF0FEFB464FB7F407E0012EC
:0E02590003327FAF120332E4FF0FEFB464FBF9
:010267002274
:1002EB00E4FDED24B012032E7F107E001203327F4B
:1002FB0004120332E4FCE4FFFE1203540CECB48052
:06030B00F50DEDB408DC65
:0103110022C9
:08011300900001EFF0A3EDF0F4
:10011B00D3940740037F0022900001E0D3948040EA
:10012B00037F0022900002E024B0F0E0FF7E00127B
:10013B00033212026870030201F6900002E0FF7EA8
:10014B0000120332900001E0FFC4540FFE90000335
:10015B00F0EF540FA3F0EE241012032E12032BE436
:10016B00FD120268FF75F022EDA42403F582E5F081
:10017B003400F583E4936F7062900001120281FFEB
:10018B0075F022EDA42404F582E5F03400F583E448
:10019B00936F7047FCEC64107014900002E0240124
:1001AB0012032EA3E0241012032EA312032B75F0BF
:1001BB0022EDA42405F582E5F03400F583E5822CCD
:1001CB00F582E43583F583E493FF7E001203540C30
:1001DB00ECB420C1900001E02410F00DED643270FE
:0D01EB0080740229F9E43AFA02013D7F0117
:0101F80022E4
:10026800BB010689828A83E0225002E722BBFE0294
:09027800E32289828A83E49322C7
:10028100BB010CE58229F582E5833AF583E0225032
:1002910006E92582F8E622BBFE06E92582F8E2227C
:0D02A100E58229F582E5833AF583E4932296
:00000001FF
